{
  "_format": "hh-sol-artifact-1",
  "contractName": "Voting",
  "sourceName": "contracts/Voting.sol",
  "abi": [
    {
      "inputs": [
        {
          "internalType": "string[]",
          "name": "candidates",
          "type": "string[]"
        }
      ],
      "stateMutability": "nonpayable",
      "type": "constructor"
    },
    {
      "inputs": [
        {
          "internalType": "uint256",
          "name": "",
          "type": "uint256"
        }
      ],
      "name": "candidateList",
      "outputs": [
        {
          "internalType": "string",
          "name": "",
          "type": "string"
        }
      ],
      "stateMutability": "view",
      "type": "function"
    },
    {
      "inputs": [],
      "name": "getCandidateList",
      "outputs": [
        {
          "internalType": "string[]",
          "name": "",
          "type": "string[]"
        }
      ],
      "stateMutability": "view",
      "type": "function"
    },
    {
      "inputs": [
        {
          "internalType": "string",
          "name": "candidate",
          "type": "string"
        }
      ],
      "name": "totalVotesFor",
      "outputs": [
        {
          "internalType": "uint256",
          "name": "",
          "type": "uint256"
        }
      ],
      "stateMutability": "view",
      "type": "function"
    },
    {
      "inputs": [
        {
          "internalType": "string",
          "name": "candidate",
          "type": "string"
        }
      ],
      "name": "validCandidate",
      "outputs": [
        {
          "internalType": "bool",
          "name": "",
          "type": "bool"
        }
      ],
      "stateMutability": "view",
      "type": "function"
    },
    {
      "inputs": [
        {
          "internalType": "string",
          "name": "candidate",
          "type": "string"
        }
      ],
      "name": "voteForCandidate",
      "outputs": [],
      "stateMutability": "nonpayable",
      "type": "function"
    },
    {
      "inputs": [
        {
          "internalType": "string",
          "name": "",
          "type": "string"
        }
      ],
      "name": "votesReceived",
      "outputs": [
        {
          "internalType": "uint256",
          "name": "",
          "type": "uint256"
        }
      ],
      "stateMutability": "view",
      "type": "function"
    }
  ],
  "bytecode": "0x60806040523480156200001157600080fd5b506040516200122e3803806200122e8339818101604052810190620000379190620003d3565b80600190805190602001906200004f92919062000057565b505062000756565b828054828255906000526020600020908101928215620000a4579160200282015b82811115620000a35782518290816200009291906200066f565b509160200191906001019062000078565b5b509050620000b39190620000b7565b5090565b5b80821115620000db5760008181620000d19190620000df565b50600101620000b8565b5090565b508054620000ed906200045e565b6000825580601f1062000101575062000122565b601f01602090049060005260206000209081019062000121919062000125565b5b50565b5b808211156200014057600081600090555060010162000126565b5090565b6000604051905090565b600080fd5b600080fd5b600080fd5b6000601f19601f8301169050919050565b7f4e487b7100000000000000000000000000000000000000000000000000000000600052604160045260246000fd5b620001a8826200015d565b810181811067ffffffffffffffff82111715620001ca57620001c96200016e565b5b80604052505050565b6000620001df62000144565b9050620001ed82826200019d565b919050565b600067ffffffffffffffff82111562000210576200020f6200016e565b5b602082029050602081019050919050565b600080fd5b600080fd5b600067ffffffffffffffff8211156200024957620002486200016e565b5b62000254826200015d565b9050602081019050919050565b60005b838110156200028157808201518184015260208101905062000264565b60008484015250505050565b6000620002a46200029e846200022b565b620001d3565b905082815260208101848484011115620002c357620002c262000226565b5b620002d084828562000261565b509392505050565b600082601f830112620002f057620002ef62000158565b5b8151620003028482602086016200028d565b91505092915050565b6000620003226200031c84620001f2565b620001d3565b9050808382526020820190506020840283018581111562000348576200034762000221565b5b835b818110156200039657805167ffffffffffffffff81111562000371576200037062000158565b5b808601620003808982620002d8565b855260208501945050506020810190506200034a565b5050509392505050565b600082601f830112620003b857620003b762000158565b5b8151620003ca8482602086016200030b565b91505092915050565b600060208284031215620003ec57620003eb6200014e565b5b600082015167ffffffffffffffff8111156200040d576200040c62000153565b5b6200041b84828501620003a0565b91505092915050565b600081519050919050565b7f4e487b7100000000000000000000000000000000000000000000000000000000600052602260045260246000fd5b600060028204905060018216806200047757607f821691505b6020821081036200048d576200048c6200042f565b5b50919050565b60008190508160005260206000209050919050565b60006020601f8301049050919050565b600082821b905092915050565b600060088302620004f77fffffffffffffffffffffffffffffffffffffffffffffffffffffffffffffffff82620004b8565b620005038683620004b8565b95508019841693508086168417925050509392505050565b6000819050919050565b6000819050919050565b6000620005506200054a62000544846200051b565b62000525565b6200051b565b9050919050565b6000819050919050565b6200056c836200052f565b620005846200057b8262000557565b848454620004c5565b825550505050565b600090565b6200059b6200058c565b620005a881848462000561565b505050565b5b81811015620005d057620005c460008262000591565b600181019050620005ae565b5050565b601f8211156200061f57620005e98162000493565b620005f484620004a8565b8101602085101562000604578190505b6200061c6200061385620004a8565b830182620005ad565b50505b505050565b600082821c905092915050565b6000620006446000198460080262000624565b1980831691505092915050565b60006200065f838362000631565b9150826002028217905092915050565b6200067a8262000424565b67ffffffffffffffff8111156200069657620006956200016e565b5b620006a282546200045e565b620006af828285620005d4565b600060209050601f831160018114620006e75760008415620006d2578287015190505b620006de858262000651565b8655506200074e565b601f198416620006f78662000493565b60005b828110156200072157848901518255600182019150602085019450602081019050620006fa565b868310156200074157848901516200073d601f89168262000631565b8355505b6001600288020188555050505b505050505050565b610ac880620007666000396000f3fe608060405234801561001057600080fd5b50600436106100625760003560e01c80634a3bf37714610067578063538c91b2146100975780638d4b44d9146100c7578063b13c744b146100f7578063e89927ef14610127578063fdbc400614610143575b600080fd5b610081600480360381019061007c9190610570565b610161565b60405161008e91906105d2565b60405180910390f35b6100b160048036038101906100ac9190610570565b61019b565b6040516100be9190610608565b60405180910390f35b6100e160048036038101906100dc9190610570565b610218565b6040516100ee91906105d2565b60405180910390f35b610111600480360381019061010c919061064f565b610246565b60405161011e91906106fb565b60405180910390f35b610141600480360381019061013c9190610570565b6102f2565b005b61014b61033d565b6040516101589190610829565b60405180910390f35b600061016c8261019b565b61017557600080fd5b6000826040516101859190610887565b9081526020016040518091039020549050919050565b600080600090505b60018054905081101561020d578280519060200120600182815481106101cc576101cb61089e565b5b906000526020600020016040516101e391906109d0565b6040518091039020036101fa576001915050610213565b808061020590610a16565b9150506101a3565b50600090505b919050565b6000818051602081018201805184825260208301602085012081835280955050505050506000915090505481565b6001818154811061025657600080fd5b906000526020600020016000915090508054610271906108fc565b80601f016020809104026020016040519081016040528092919081815260200182805461029d906108fc565b80156102ea5780601f106102bf576101008083540402835291602001916102ea565b820191906000526020600020905b8154815290600101906020018083116102cd57829003601f168201915b505050505081565b6102fb8161019b565b61030457600080fd5b60016000826040516103169190610887565b908152602001604051809103902060008282546103339190610a5e565b9250508190555050565b60606001805480602002602001604051908101604052809291908181526020016000905b8282101561040d578382906000526020600020018054610380906108fc565b80601f01602080910402602001604051908101604052809291908181526020018280546103ac906108fc565b80156103f95780601f106103ce576101008083540402835291602001916103f9565b820191906000526020600020905b8154815290600101906020018083116103dc57829003601f168201915b505050505081526020019060010190610361565b50505050905090565b6000604051905090565b600080fd5b600080fd5b600080fd5b600080fd5b6000601f19601f8301169050919050565b7f4e487b7100000000000000000000000000000000000000000000000000000000600052604160045260246000fd5b61047d82610434565b810181811067ffffffffffffffff8211171561049c5761049b610445565b5b80604052505050565b60006104af610416565b90506104bb8282610474565b919050565b600067ffffffffffffffff8211156104db576104da610445565b5b6104e482610434565b9050602081019050919050565b82818337600083830152505050565b600061051361050e846104c0565b6104a5565b90508281526020810184848401111561052f5761052e61042f565b5b61053a8482856104f1565b509392505050565b600082601f8301126105575761055661042a565b5b8135610567848260208601610500565b91505092915050565b60006020828403121561058657610585610420565b5b600082013567ffffffffffffffff8111156105a4576105a3610425565b5b6105b084828501610542565b91505092915050565b6000819050919050565b6105cc816105b9565b82525050565b60006020820190506105e760008301846105c3565b92915050565b60008115159050919050565b610602816105ed565b82525050565b600060208201905061061d60008301846105f9565b92915050565b61062c816105b9565b811461063757600080fd5b50565b60008135905061064981610623565b92915050565b60006020828403121561066557610664610420565b5b60006106738482850161063a565b91505092915050565b600081519050919050565b600082825260208201905092915050565b60005b838110156106b657808201518184015260208101905061069b565b60008484015250505050565b60006106cd8261067c565b6106d78185610687565b93506106e7818560208601610698565b6106f081610434565b840191505092915050565b6000602082019050818103600083015261071581846106c2565b905092915050565b600081519050919050565b600082825260208201905092915050565b6000819050602082019050919050565b600082825260208201905092915050565b60006107658261067c565b61076f8185610749565b935061077f818560208601610698565b61078881610434565b840191505092915050565b600061079f838361075a565b905092915050565b6000602082019050919050565b60006107bf8261071d565b6107c98185610728565b9350836020820285016107db85610739565b8060005b8581101561081757848403895281516107f88582610793565b9450610803836107a7565b925060208a019950506001810190506107df565b50829750879550505050505092915050565b6000602082019050818103600083015261084381846107b4565b905092915050565b600081905092915050565b60006108618261067c565b61086b818561084b565b935061087b818560208601610698565b80840191505092915050565b60006108938284610856565b915081905092915050565b7f4e487b7100000000000000000000000000000000000000000000000000000000600052603260045260246000fd5b7f4e487b7100000000000000000000000000000000000000000000000000000000600052602260045260246000fd5b6000600282049050600182168061091457607f821691505b602082108103610927576109266108cd565b5b50919050565b600081905092915050565b60008190508160005260206000209050919050565b6000815461095a816108fc565b610964818661092d565b9450600182166000811461097f5760018114610994576109c7565b60ff19831686528115158202860193506109c7565b61099d85610938565b60005b838110156109bf578154818901526001820191506020810190506109a0565b838801955050505b50505092915050565b60006109dc828461094d565b915081905092915050565b7f4e487b7100000000000000000000000000000000000000000000000000000000600052601160045260246000fd5b6000610a21826105b9565b91507fffffffffffffffffffffffffffffffffffffffffffffffffffffffffffffffff8203610a5357610a526109e7565b5b600182019050919050565b6000610a69826105b9565b9150610a74836105b9565b9250828201905080821115610a8c57610a8b6109e7565b5b9291505056fea26469706673582212207a6ddde0d568940809183636ef6aa086cb77789417b69ab358ead75d0eb77a1b64736f6c63430008120033",
  "linkReferences": {},
  "deployedLinkReferences": {}
}